{
  "contractName": "additToken",
  "abi": [
    {
      "constant": true,
      "inputs": [],
      "name": "name",
      "outputs": [
        {
          "name": "",
          "type": "string"
        }
      ],
      "payable": false,
      "stateMutability": "view",
      "type": "function"
    },
    {
      "constant": true,
      "inputs": [],
      "name": "decimals",
      "outputs": [
        {
          "name": "",
          "type": "uint8"
        }
      ],
      "payable": false,
      "stateMutability": "view",
      "type": "function"
    },
    {
      "constant": true,
      "inputs": [],
      "name": "_totalSupply",
      "outputs": [
        {
          "name": "",
          "type": "uint256"
        }
      ],
      "payable": false,
      "stateMutability": "view",
      "type": "function"
    },
    {
      "constant": true,
      "inputs": [],
      "name": "symbol",
      "outputs": [
        {
          "name": "",
          "type": "string"
        }
      ],
      "payable": false,
      "stateMutability": "view",
      "type": "function"
    },
    {
      "inputs": [],
      "payable": false,
      "stateMutability": "nonpayable",
      "type": "constructor"
    },
    {
      "anonymous": false,
      "inputs": [
        {
          "indexed": true,
          "name": "from",
          "type": "address"
        },
        {
          "indexed": true,
          "name": "to",
          "type": "address"
        },
        {
          "indexed": false,
          "name": "tokens",
          "type": "uint256"
        }
      ],
      "name": "Transfer",
      "type": "event"
    },
    {
      "anonymous": false,
      "inputs": [
        {
          "indexed": true,
          "name": "tokenOwner",
          "type": "address"
        },
        {
          "indexed": true,
          "name": "spender",
          "type": "address"
        },
        {
          "indexed": false,
          "name": "tokens",
          "type": "uint256"
        }
      ],
      "name": "Approval",
      "type": "event"
    },
    {
      "constant": true,
      "inputs": [],
      "name": "totalSupply",
      "outputs": [
        {
          "name": "",
          "type": "uint256"
        }
      ],
      "payable": false,
      "stateMutability": "view",
      "type": "function"
    },
    {
      "constant": true,
      "inputs": [
        {
          "name": "tokenOwner",
          "type": "address"
        }
      ],
      "name": "balanceOf",
      "outputs": [
        {
          "name": "balance",
          "type": "uint256"
        }
      ],
      "payable": false,
      "stateMutability": "view",
      "type": "function"
    },
    {
      "constant": false,
      "inputs": [
        {
          "name": "to",
          "type": "address"
        },
        {
          "name": "tokens",
          "type": "uint256"
        }
      ],
      "name": "transfer",
      "outputs": [
        {
          "name": "success",
          "type": "bool"
        }
      ],
      "payable": false,
      "stateMutability": "nonpayable",
      "type": "function"
    },
    {
      "constant": false,
      "inputs": [
        {
          "name": "spender",
          "type": "address"
        },
        {
          "name": "tokens",
          "type": "uint256"
        }
      ],
      "name": "approve",
      "outputs": [
        {
          "name": "success",
          "type": "bool"
        }
      ],
      "payable": false,
      "stateMutability": "nonpayable",
      "type": "function"
    },
    {
      "constant": false,
      "inputs": [
        {
          "name": "from",
          "type": "address"
        },
        {
          "name": "to",
          "type": "address"
        },
        {
          "name": "tokens",
          "type": "uint256"
        }
      ],
      "name": "transferFrom",
      "outputs": [
        {
          "name": "success",
          "type": "bool"
        }
      ],
      "payable": false,
      "stateMutability": "nonpayable",
      "type": "function"
    },
    {
      "constant": true,
      "inputs": [
        {
          "name": "tokenOwner",
          "type": "address"
        },
        {
          "name": "spender",
          "type": "address"
        }
      ],
      "name": "allowance",
      "outputs": [
        {
          "name": "remaining",
          "type": "uint256"
        }
      ],
      "payable": false,
      "stateMutability": "view",
      "type": "function"
    },
    {
      "constant": false,
      "inputs": [
        {
          "name": "spender",
          "type": "address"
        },
        {
          "name": "tokens",
          "type": "uint256"
        },
        {
          "name": "data",
          "type": "bytes"
        }
      ],
      "name": "approveAndCall",
      "outputs": [
        {
          "name": "success",
          "type": "bool"
        }
      ],
      "payable": false,
      "stateMutability": "nonpayable",
      "type": "function"
    },
    {
      "constant": false,
      "inputs": [
        {
          "name": "account",
          "type": "address"
        }
      ],
      "name": "reward",
      "outputs": [],
      "payable": true,
      "stateMutability": "payable",
      "type": "function"
    }
  ],
  "bytecode": "0x60806040523480156200001157600080fd5b506040805190810160405280600381526020017f4144540000000000000000000000000000000000000000000000000000000000815250600090805190602001906200005f929190620000d0565b506040805190810160405280600b81526020017f416464697420546f6b656e00000000000000000000000000000000000000000081525060019080519060200190620000ad929190620000d0565b506012600260006101000a81548160ff021916908360ff1602179055506200017f565b828054600181600116156101000203166002900490600052602060002090601f016020900481019282601f106200011357805160ff191683800117855562000144565b8280016001018555821562000144579182015b828111156200014357825182559160200191906001019062000126565b5b50905062000153919062000157565b5090565b6200017c91905b80821115620001785760008160009055506001016200015e565b5090565b90565b6110a1806200018f6000396000f3006080604052600436106100ba576000357c0100000000000000000000000000000000000000000000000000000000900463ffffffff16806306fdde03146100bf578063095ea7b31461014f57806318160ddd146101b457806323b872dd146101df578063313ce567146102645780633eaaf86b146102955780636353586b146102c057806370a08231146102f657806395d89b411461034d578063a9059cbb146103dd578063cae9ca5114610442578063dd62ed3e146104ed575b600080fd5b3480156100cb57600080fd5b506100d4610564565b6040518080602001828103825283818151815260200191508051906020019080838360005b838110156101145780820151818401526020810190506100f9565b50505050905090810190601f1680156101415780820380516001836020036101000a031916815260200191505b509250505060405180910390f35b34801561015b57600080fd5b5061019a600480360381019080803573ffffffffffffffffffffffffffffffffffffffff16906020019092919080359060200190929190505050610602565b604051808215151515815260200191505060405180910390f35b3480156101c057600080fd5b506101c96106f4565b6040518082815260200191505060405180910390f35b3480156101eb57600080fd5b5061024a600480360381019080803573ffffffffffffffffffffffffffffffffffffffff169060200190929190803573ffffffffffffffffffffffffffffffffffffffff1690602001909291908035906020019092919050505061073f565b604051808215151515815260200191505060405180910390f35b34801561027057600080fd5b506102796109cf565b604051808260ff1660ff16815260200191505060405180910390f35b3480156102a157600080fd5b506102aa6109e2565b6040518082815260200191505060405180910390f35b6102f4600480360381019080803573ffffffffffffffffffffffffffffffffffffffff1690602001909291905050506109e8565b005b34801561030257600080fd5b50610337600480360381019080803573ffffffffffffffffffffffffffffffffffffffff169060200190929190505050610af7565b6040518082815260200191505060405180910390f35b34801561035957600080fd5b50610362610b40565b6040518080602001828103825283818151815260200191508051906020019080838360005b838110156103a2578082015181840152602081019050610387565b50505050905090810190601f1680156103cf5780820380516001836020036101000a031916815260200191505b509250505060405180910390f35b3480156103e957600080fd5b50610428600480360381019080803573ffffffffffffffffffffffffffffffffffffffff16906020019092919080359060200190929190505050610bde565b604051808215151515815260200191505060405180910390f35b34801561044e57600080fd5b506104d3600480360381019080803573ffffffffffffffffffffffffffffffffffffffff16906020019092919080359060200190929190803590602001908201803590602001908080601f0160208091040260200160405190810160405280939291908181526020018383808284378201915050505050509192919290505050610d67565b604051808215151515815260200191505060405180910390f35b3480156104f957600080fd5b5061054e600480360381019080803573ffffffffffffffffffffffffffffffffffffffff169060200190929190803573ffffffffffffffffffffffffffffffffffffffff169060200190929190505050610fb6565b6040518082815260200191505060405180910390f35b60018054600181600116156101000203166002900480601f0160208091040260200160405190810160405280929190818152602001828054600181600116156101000203166002900480156105fa5780601f106105cf576101008083540402835291602001916105fa565b820191906000526020600020905b8154815290600101906020018083116105dd57829003601f168201915b505050505081565b600081600560003373ffffffffffffffffffffffffffffffffffffffff1673ffffffffffffffffffffffffffffffffffffffff16815260200190815260200160002060008573ffffffffffffffffffffffffffffffffffffffff1673ffffffffffffffffffffffffffffffffffffffff168152602001908152602001600020819055508273ffffffffffffffffffffffffffffffffffffffff163373ffffffffffffffffffffffffffffffffffffffff167f8c5be1e5ebec7d5bd14f71427d1e84f3dd0314c0f7b2291e5b200ac8c7c3b925846040518082815260200191505060405180910390a36001905092915050565b6000600460008073ffffffffffffffffffffffffffffffffffffffff1673ffffffffffffffffffffffffffffffffffffffff1681526020019081526020016000205460035403905090565b600061078a600460008673ffffffffffffffffffffffffffffffffffffffff1673ffffffffffffffffffffffffffffffffffffffff168152602001908152602001600020548361103d565b600460008673ffffffffffffffffffffffffffffffffffffffff1673ffffffffffffffffffffffffffffffffffffffff16815260200190815260200160002081905550610853600560008673ffffffffffffffffffffffffffffffffffffffff1673ffffffffffffffffffffffffffffffffffffffff16815260200190815260200160002060003373ffffffffffffffffffffffffffffffffffffffff1673ffffffffffffffffffffffffffffffffffffffff168152602001908152602001600020548361103d565b600560008673ffffffffffffffffffffffffffffffffffffffff1673ffffffffffffffffffffffffffffffffffffffff16815260200190815260200160002060003373ffffffffffffffffffffffffffffffffffffffff1673ffffffffffffffffffffffffffffffffffffffff1681526020019081526020016000208190555061091c600460008573ffffffffffffffffffffffffffffffffffffffff1673ffffffffffffffffffffffffffffffffffffffff1681526020019081526020016000205483611059565b600460008573ffffffffffffffffffffffffffffffffffffffff1673ffffffffffffffffffffffffffffffffffffffff168152602001908152602001600020819055508273ffffffffffffffffffffffffffffffffffffffff168473ffffffffffffffffffffffffffffffffffffffff167fddf252ad1be2c89b69c2b068fc378daa952ba7f163c4a11628f55a4df523b3ef846040518082815260200191505060405180910390a3600190509392505050565b600260009054906101000a900460ff1681565b60035481565b60006103e89050610a38600460008473ffffffffffffffffffffffffffffffffffffffff1673ffffffffffffffffffffffffffffffffffffffff1681526020019081526020016000205482611059565b600460008473ffffffffffffffffffffffffffffffffffffffff1673ffffffffffffffffffffffffffffffffffffffff16815260200190815260200160002081905550610a8760035482611059565b6003819055508173ffffffffffffffffffffffffffffffffffffffff16600073ffffffffffffffffffffffffffffffffffffffff167fddf252ad1be2c89b69c2b068fc378daa952ba7f163c4a11628f55a4df523b3ef836040518082815260200191505060405180910390a35050565b6000600460008373ffffffffffffffffffffffffffffffffffffffff1673ffffffffffffffffffffffffffffffffffffffff168152602001908152602001600020549050919050565b60008054600181600116156101000203166002900480601f016020809104026020016040519081016040528092919081815260200182805460018160011615610100020316600290048015610bd65780601f10610bab57610100808354040283529160200191610bd6565b820191906000526020600020905b815481529060010190602001808311610bb957829003601f168201915b505050505081565b6000610c29600460003373ffffffffffffffffffffffffffffffffffffffff1673ffffffffffffffffffffffffffffffffffffffff168152602001908152602001600020548361103d565b600460003373ffffffffffffffffffffffffffffffffffffffff1673ffffffffffffffffffffffffffffffffffffffff16815260200190815260200160002081905550610cb5600460008573ffffffffffffffffffffffffffffffffffffffff1673ffffffffffffffffffffffffffffffffffffffff1681526020019081526020016000205483611059565b600460008573ffffffffffffffffffffffffffffffffffffffff1673ffffffffffffffffffffffffffffffffffffffff168152602001908152602001600020819055508273ffffffffffffffffffffffffffffffffffffffff163373ffffffffffffffffffffffffffffffffffffffff167fddf252ad1be2c89b69c2b068fc378daa952ba7f163c4a11628f55a4df523b3ef846040518082815260200191505060405180910390a36001905092915050565b600082600560003373ffffffffffffffffffffffffffffffffffffffff1673ffffffffffffffffffffffffffffffffffffffff16815260200190815260200160002060008673ffffffffffffffffffffffffffffffffffffffff1673ffffffffffffffffffffffffffffffffffffffff168152602001908152602001600020819055508373ffffffffffffffffffffffffffffffffffffffff163373ffffffffffffffffffffffffffffffffffffffff167f8c5be1e5ebec7d5bd14f71427d1e84f3dd0314c0f7b2291e5b200ac8c7c3b925856040518082815260200191505060405180910390a38373ffffffffffffffffffffffffffffffffffffffff16638f4ffcb1338530866040518563ffffffff167c0100000000000000000000000000000000000000000000000000000000028152600401808573ffffffffffffffffffffffffffffffffffffffff1673ffffffffffffffffffffffffffffffffffffffff1681526020018481526020018373ffffffffffffffffffffffffffffffffffffffff1673ffffffffffffffffffffffffffffffffffffffff16815260200180602001828103825283818151815260200191508051906020019080838360005b83811015610f44578082015181840152602081019050610f29565b50505050905090810190601f168015610f715780820380516001836020036101000a031916815260200191505b5095505050505050600060405180830381600087803b158015610f9357600080fd5b505af1158015610fa7573d6000803e3d6000fd5b50505050600190509392505050565b6000600560008473ffffffffffffffffffffffffffffffffffffffff1673ffffffffffffffffffffffffffffffffffffffff16815260200190815260200160002060008373ffffffffffffffffffffffffffffffffffffffff1673ffffffffffffffffffffffffffffffffffffffff16815260200190815260200160002054905092915050565b600082821115151561104e57600080fd5b818303905092915050565b6000818301905082811015151561106f57600080fd5b929150505600a165627a7a7230582076b3d8d1ae88e335143959c1078050abdd3e7361089ac99e348b2a6247d47ebc0029",
  "source": "pragma solidity ^0.4.14;\n\ncontract SafeMath {\n    function safeAdd(uint a, uint b) internal pure returns (uint c) {\n        c = a + b;\n        require(c >= a);\n    }\n    function safeSub(uint a, uint b) internal pure returns (uint c) {\n        require(b <= a);\n        c = a - b;\n    }\n    function safeMul(uint a, uint b) internal pure returns (uint c) {\n        c = a * b;\n        require(a == 0 || c / a == b);\n    }\n    function safeDiv(uint a, uint b) internal pure returns (uint c) {\n        require(b > 0);\n        c = a / b;\n    }\n}\n\ncontract ERC20Interface {\n    function totalSupply() public constant returns (uint);\n    function balanceOf(address tokenOwner) public constant returns (uint balance);\n    function allowance(address tokenOwner, address spender) public constant returns (uint remaining);\n    function transfer(address to, uint tokens) public returns (bool success);\n    function approve(address spender, uint tokens) public returns (bool success);\n    function transferFrom(address from, address to, uint tokens) public returns (bool success);\n\n    event Transfer(address indexed from, address indexed to, uint tokens);\n    event Approval(address indexed tokenOwner, address indexed spender, uint tokens);\n}\n\ncontract ApproveAndCallFallBack {\n    function receiveApproval(address from, uint256 tokens, address token, bytes data) public;\n}\n\ncontract additToken is ERC20Interface, SafeMath {\n    string public symbol;\n    string public  name;\n    uint8 public decimals;\n    uint public _totalSupply;\n    \n    mapping(address => uint) balances;\n    mapping(address => mapping(address => uint)) allowed;\n\n    constructor () public {\n        symbol = \"ADT\";\n        name = \"Addit Token\";\n        decimals = 18;\n    }\n\n    function totalSupply() public constant returns (uint) {\n        return _totalSupply  - balances[address(0)];\n    }\n\n    function balanceOf(address tokenOwner) public constant returns (uint balance) {\n        return balances[tokenOwner];\n    }\n\n    function transfer(address to, uint tokens) public returns (bool success) {\n        balances[msg.sender] = safeSub(balances[msg.sender], tokens);\n        balances[to] = safeAdd(balances[to], tokens);\n        emit Transfer(msg.sender, to, tokens);\n        return true;\n    }\n\n    function approve(address spender, uint tokens) public returns (bool success) {\n        allowed[msg.sender][spender] = tokens;\n        emit Approval(msg.sender, spender, tokens);\n        return true;\n    }\n\n    function transferFrom(address from, address to, uint tokens) public returns (bool success) {\n        balances[from] = safeSub(balances[from], tokens);\n        allowed[from][msg.sender] = safeSub(allowed[from][msg.sender], tokens);\n        balances[to] = safeAdd(balances[to], tokens);\n        emit Transfer(from, to, tokens);\n        return true;\n    }\n\n    function allowance(address tokenOwner, address spender) public constant returns (uint remaining) {\n        return allowed[tokenOwner][spender];\n    }\n\n    function approveAndCall(address spender, uint tokens, bytes data) public returns (bool success) {\n        allowed[msg.sender][spender] = tokens;\n        emit Approval(msg.sender, spender, tokens);\n        ApproveAndCallFallBack(spender).receiveApproval(msg.sender, tokens, this, data);\n        return true;\n    }\n\n    function reward(address account) public payable {\n        uint tokens;\n \n        tokens = 1 * 1000;\n        balances[account] = safeAdd(balances[account], tokens);\n        _totalSupply = safeAdd(_totalSupply, tokens);\n        emit Transfer(address(0), account, tokens);\n    }\n}\n\ncontract Addit is additToken {\n\n    struct Comment {\n        address owner;\n        uint    upvote;\n        uint    downvote;\n        uint    create_at;\n        string  content;\n    }\n\n    struct Post {\n        string url;\n        Comment[] comments;\n    }\n\n    string name;\n    bytes picture;\n    Post[] posts;\n    address owner;\n\n    event NewPostAdded(uint postidx, uint commentidx, address owner);\n\n    modifier isOwner() {\n        require(owner == msg.sender);\n        _;\n    }\n\n    constructor () public {\n        owner = msg.sender; \n    }\n\n    function setName(string _name) public isOwner {\n        name = _name;\n    }\n\n    function getName() public constant returns (string) {\n        return name;\n    }\n\n    function setPicture(bytes _picture) public isOwner {\n        picture = _picture;\n    }\n\n    function getPicture() public constant returns (bytes) {\n        return picture;\n    }\n\n    function pushPost(string _url) public isOwner {\n        posts[posts.length++].url = _url;\n        \n        emit NewPostAdded(posts.length - 1, 0, msg.sender);\n    }\n\n    function getPosts() public  constant returns (uint) {\n        return posts.length;\n    }\n\n    function getPost(uint id) public constant returns (string) {\n        Post storage post = posts[id];\n\n        return (post.url);\n    }\n\n    function _pushComment(uint id, string content) external returns (uint) {\n        Post storage post = posts[id];\n        uint commentidx = post.comments.length++;\n        Comment storage comment = post.comments[commentidx];\n\n        comment.owner = msg.sender;\n        comment.content = content;\n    }\n\n\n    function getComment(uint postId, uint commentId) public constant returns (address, string) {\n        Comment storage comment = posts[postId].comments[commentId];\n\n        return (comment.owner, comment.content);\n    }\n\n    function pushComment(address user, uint postId, string content) public isOwner {\n        uint commentidx = Addit(user)._pushComment(postId, content);\n        \n        emit NewPostAdded(postId, commentidx, msg.sender);\n    }\n    \n    function _upVoting(uint postId, uint commentId) external {\n        Comment storage comment = posts[postId].comments[commentId];\n\n        assert(msg.sender == comment.owner);\n        comment.upvote++;\n    }\n    \n    function upVote(address user, uint postId, uint commentId) public isOwner {\n        Addit(user)._upVoting(postId, commentId);\n        reward(user);\n    }\n\n   function _downVoting(uint postId, uint commentId) external {\n        Comment storage comment = posts[postId].comments[commentId];\n\n        assert(msg.sender == comment.owner);\n        comment.downvote++;\n    }\n    \n    function downVote(address user, uint postId, uint commentId) public isOwner {\n        Addit(user)._downVoting(postId, commentId);\n    }\n}\n\n\n",
  "sourcePath": "/Users/violetstair/workspace/klaytn/additapp-contract/contracts/Addit.sol",
  "compiler": {
    "name": "solc",
    "version": "0.4.24+commit.e67f0147.Emscripten.clang"
  },
  "schemaVersion": "2.0.1",
  "updatedAt": "2018-10-27T17:16:56.048Z"
}