{
  "contractName": "Addit",
  "abi": [
    {
      "constant": true,
      "inputs": [],
      "name": "name",
      "outputs": [
        {
          "name": "",
          "type": "string"
        }
      ],
      "payable": false,
      "stateMutability": "view",
      "type": "function"
    },
    {
      "constant": false,
      "inputs": [
        {
          "name": "spender",
          "type": "address"
        },
        {
          "name": "tokens",
          "type": "uint256"
        }
      ],
      "name": "approve",
      "outputs": [
        {
          "name": "success",
          "type": "bool"
        }
      ],
      "payable": false,
      "stateMutability": "nonpayable",
      "type": "function"
    },
    {
      "constant": true,
      "inputs": [],
      "name": "totalSupply",
      "outputs": [
        {
          "name": "",
          "type": "uint256"
        }
      ],
      "payable": false,
      "stateMutability": "view",
      "type": "function"
    },
    {
      "constant": false,
      "inputs": [
        {
          "name": "from",
          "type": "address"
        },
        {
          "name": "to",
          "type": "address"
        },
        {
          "name": "tokens",
          "type": "uint256"
        }
      ],
      "name": "transferFrom",
      "outputs": [
        {
          "name": "success",
          "type": "bool"
        }
      ],
      "payable": false,
      "stateMutability": "nonpayable",
      "type": "function"
    },
    {
      "constant": true,
      "inputs": [],
      "name": "decimals",
      "outputs": [
        {
          "name": "",
          "type": "uint8"
        }
      ],
      "payable": false,
      "stateMutability": "view",
      "type": "function"
    },
    {
      "constant": true,
      "inputs": [],
      "name": "_totalSupply",
      "outputs": [
        {
          "name": "",
          "type": "uint256"
        }
      ],
      "payable": false,
      "stateMutability": "view",
      "type": "function"
    },
    {
      "constant": false,
      "inputs": [
        {
          "name": "account",
          "type": "address"
        }
      ],
      "name": "reward",
      "outputs": [],
      "payable": true,
      "stateMutability": "payable",
      "type": "function"
    },
    {
      "constant": true,
      "inputs": [
        {
          "name": "tokenOwner",
          "type": "address"
        }
      ],
      "name": "balanceOf",
      "outputs": [
        {
          "name": "balance",
          "type": "uint256"
        }
      ],
      "payable": false,
      "stateMutability": "view",
      "type": "function"
    },
    {
      "constant": true,
      "inputs": [],
      "name": "symbol",
      "outputs": [
        {
          "name": "",
          "type": "string"
        }
      ],
      "payable": false,
      "stateMutability": "view",
      "type": "function"
    },
    {
      "constant": false,
      "inputs": [
        {
          "name": "to",
          "type": "address"
        },
        {
          "name": "tokens",
          "type": "uint256"
        }
      ],
      "name": "transfer",
      "outputs": [
        {
          "name": "success",
          "type": "bool"
        }
      ],
      "payable": false,
      "stateMutability": "nonpayable",
      "type": "function"
    },
    {
      "constant": false,
      "inputs": [
        {
          "name": "spender",
          "type": "address"
        },
        {
          "name": "tokens",
          "type": "uint256"
        },
        {
          "name": "data",
          "type": "bytes"
        }
      ],
      "name": "approveAndCall",
      "outputs": [
        {
          "name": "success",
          "type": "bool"
        }
      ],
      "payable": false,
      "stateMutability": "nonpayable",
      "type": "function"
    },
    {
      "constant": true,
      "inputs": [
        {
          "name": "tokenOwner",
          "type": "address"
        },
        {
          "name": "spender",
          "type": "address"
        }
      ],
      "name": "allowance",
      "outputs": [
        {
          "name": "remaining",
          "type": "uint256"
        }
      ],
      "payable": false,
      "stateMutability": "view",
      "type": "function"
    },
    {
      "inputs": [],
      "payable": false,
      "stateMutability": "nonpayable",
      "type": "constructor"
    },
    {
      "anonymous": false,
      "inputs": [
        {
          "indexed": false,
          "name": "postidx",
          "type": "uint256"
        },
        {
          "indexed": false,
          "name": "commentidx",
          "type": "uint256"
        },
        {
          "indexed": false,
          "name": "owner",
          "type": "address"
        }
      ],
      "name": "NewPostAdded",
      "type": "event"
    },
    {
      "anonymous": false,
      "inputs": [
        {
          "indexed": true,
          "name": "from",
          "type": "address"
        },
        {
          "indexed": true,
          "name": "to",
          "type": "address"
        },
        {
          "indexed": false,
          "name": "tokens",
          "type": "uint256"
        }
      ],
      "name": "Transfer",
      "type": "event"
    },
    {
      "anonymous": false,
      "inputs": [
        {
          "indexed": true,
          "name": "tokenOwner",
          "type": "address"
        },
        {
          "indexed": true,
          "name": "spender",
          "type": "address"
        },
        {
          "indexed": false,
          "name": "tokens",
          "type": "uint256"
        }
      ],
      "name": "Approval",
      "type": "event"
    },
    {
      "constant": false,
      "inputs": [
        {
          "name": "_name",
          "type": "string"
        }
      ],
      "name": "setName",
      "outputs": [],
      "payable": false,
      "stateMutability": "nonpayable",
      "type": "function"
    },
    {
      "constant": true,
      "inputs": [],
      "name": "getName",
      "outputs": [
        {
          "name": "",
          "type": "string"
        }
      ],
      "payable": false,
      "stateMutability": "view",
      "type": "function"
    },
    {
      "constant": false,
      "inputs": [
        {
          "name": "_picture",
          "type": "bytes"
        }
      ],
      "name": "setPicture",
      "outputs": [],
      "payable": false,
      "stateMutability": "nonpayable",
      "type": "function"
    },
    {
      "constant": true,
      "inputs": [],
      "name": "getPicture",
      "outputs": [
        {
          "name": "",
          "type": "bytes"
        }
      ],
      "payable": false,
      "stateMutability": "view",
      "type": "function"
    },
    {
      "constant": false,
      "inputs": [
        {
          "name": "_url",
          "type": "string"
        }
      ],
      "name": "pushPost",
      "outputs": [],
      "payable": false,
      "stateMutability": "nonpayable",
      "type": "function"
    },
    {
      "constant": true,
      "inputs": [],
      "name": "getPosts",
      "outputs": [
        {
          "name": "",
          "type": "uint256"
        }
      ],
      "payable": false,
      "stateMutability": "view",
      "type": "function"
    },
    {
      "constant": true,
      "inputs": [
        {
          "name": "id",
          "type": "uint256"
        }
      ],
      "name": "getPost",
      "outputs": [
        {
          "name": "",
          "type": "string"
        }
      ],
      "payable": false,
      "stateMutability": "view",
      "type": "function"
    },
    {
      "constant": false,
      "inputs": [
        {
          "name": "id",
          "type": "uint256"
        },
        {
          "name": "content",
          "type": "string"
        }
      ],
      "name": "_pushComment",
      "outputs": [
        {
          "name": "",
          "type": "uint256"
        }
      ],
      "payable": false,
      "stateMutability": "nonpayable",
      "type": "function"
    },
    {
      "constant": true,
      "inputs": [
        {
          "name": "postId",
          "type": "uint256"
        },
        {
          "name": "commentId",
          "type": "uint256"
        }
      ],
      "name": "getComment",
      "outputs": [
        {
          "name": "",
          "type": "address"
        },
        {
          "name": "",
          "type": "string"
        }
      ],
      "payable": false,
      "stateMutability": "view",
      "type": "function"
    },
    {
      "constant": false,
      "inputs": [
        {
          "name": "user",
          "type": "address"
        },
        {
          "name": "postId",
          "type": "uint256"
        },
        {
          "name": "content",
          "type": "string"
        }
      ],
      "name": "pushComment",
      "outputs": [],
      "payable": false,
      "stateMutability": "nonpayable",
      "type": "function"
    },
    {
      "constant": false,
      "inputs": [
        {
          "name": "postId",
          "type": "uint256"
        },
        {
          "name": "commentId",
          "type": "uint256"
        }
      ],
      "name": "_upVoting",
      "outputs": [],
      "payable": false,
      "stateMutability": "nonpayable",
      "type": "function"
    },
    {
      "constant": false,
      "inputs": [
        {
          "name": "user",
          "type": "address"
        },
        {
          "name": "postId",
          "type": "uint256"
        },
        {
          "name": "commentId",
          "type": "uint256"
        }
      ],
      "name": "upVote",
      "outputs": [],
      "payable": false,
      "stateMutability": "nonpayable",
      "type": "function"
    },
    {
      "constant": false,
      "inputs": [
        {
          "name": "postId",
          "type": "uint256"
        },
        {
          "name": "commentId",
          "type": "uint256"
        }
      ],
      "name": "_downVoting",
      "outputs": [],
      "payable": false,
      "stateMutability": "nonpayable",
      "type": "function"
    },
    {
      "constant": false,
      "inputs": [
        {
          "name": "user",
          "type": "address"
        },
        {
          "name": "postId",
          "type": "uint256"
        },
        {
          "name": "commentId",
          "type": "uint256"
        }
      ],
      "name": "downVote",
      "outputs": [],
      "payable": false,
      "stateMutability": "nonpayable",
      "type": "function"
    }
  ],
  "bytecode": "0x60806040523480156200001157600080fd5b506040805190810160405280600381526020017f4144540000000000000000000000000000000000000000000000000000000000815250600090805190602001906200005f92919062000111565b506040805190810160405280600b81526020017f416464697420546f6b656e00000000000000000000000000000000000000000081525060019080519060200190620000ad92919062000111565b506012600260006101000a81548160ff021916908360ff16021790555033600960006101000a81548173ffffffffffffffffffffffffffffffffffffffff021916908373ffffffffffffffffffffffffffffffffffffffff160217905550620001c0565b828054600181600116156101000203166002900490600052602060002090601f016020900481019282601f106200015457805160ff191683800117855562000185565b8280016001018555821562000185579182015b828111156200018457825182559160200191906001019062000167565b5b50905062000194919062000198565b5090565b620001bd91905b80821115620001b95760008160009055506001016200019f565b5090565b90565b6125ac80620001d06000396000f300608060405260043610610153576000357c0100000000000000000000000000000000000000000000000000000000900463ffffffff168062075f841461015857806306fdde03146101c1578063095ea7b31461025157806317d7de7c146102b657806318160ddd1461034657806323b872dd146103715780632ebabd89146103f6578063313ce5671461045f5780633eaaf86b1461049057806340731c24146104bb57806341f3004a1461056157806344fb19fe1461058c57806348892753146105e35780636353586b146106c657806370a08231146106fc57806374c63725146107535780637ff4059c1461078a57806395d89b411461081a57806399c814db146108aa578063a9059cbb1461093d578063c47f0027146109a2578063cae9ca5114610a0b578063d6b9eb4f14610ab6578063dd62ed3e14610aed578063e139f3f614610b64578063e660154214610bbd575b600080fd5b34801561016457600080fd5b506101bf600480360381019080803590602001908201803590602001908080601f0160208091040260200160405190810160405280939291908181526020018383808284378201915050505050509192919290505050610c14565b005b3480156101cd57600080fd5b506101d6610c8a565b6040518080602001828103825283818151815260200191508051906020019080838360005b838110156102165780820151818401526020810190506101fb565b50505050905090810190601f1680156102435780820380516001836020036101000a031916815260200191505b509250505060405180910390f35b34801561025d57600080fd5b5061029c600480360381019080803573ffffffffffffffffffffffffffffffffffffffff16906020019092919080359060200190929190505050610d28565b604051808215151515815260200191505060405180910390f35b3480156102c257600080fd5b506102cb610e1a565b6040518080602001828103825283818151815260200191508051906020019080838360005b8381101561030b5780820151818401526020810190506102f0565b50505050905090810190601f1680156103385780820380516001836020036101000a031916815260200191505b509250505060405180910390f35b34801561035257600080fd5b5061035b610ebc565b6040518082815260200191505060405180910390f35b34801561037d57600080fd5b506103dc600480360381019080803573ffffffffffffffffffffffffffffffffffffffff169060200190929190803573ffffffffffffffffffffffffffffffffffffffff16906020019092919080359060200190929190505050610f07565b604051808215151515815260200191505060405180910390f35b34801561040257600080fd5b5061045d600480360381019080803590602001908201803590602001908080601f0160208091040260200160405190810160405280939291908181526020018383808284378201915050505050509192919290505050611197565b005b34801561046b57600080fd5b506104746112b9565b604051808260ff1660ff16815260200191505060405180910390f35b34801561049c57600080fd5b506104a56112cc565b6040518082815260200191505060405180910390f35b3480156104c757600080fd5b506104e6600480360381019080803590602001909291905050506112d2565b6040518080602001828103825283818151815260200191508051906020019080838360005b8381101561052657808201518184015260208101905061050b565b50505050905090810190601f1680156105535780820380516001836020036101000a031916815260200191505b509250505060405180910390f35b34801561056d57600080fd5b5061057661139a565b6040518082815260200191505060405180910390f35b34801561059857600080fd5b506105e1600480360381019080803573ffffffffffffffffffffffffffffffffffffffff16906020019092919080359060200190929190803590602001909291905050506113a7565b005b3480156105ef57600080fd5b506106186004803603810190808035906020019092919080359060200190929190505050611497565b604051808373ffffffffffffffffffffffffffffffffffffffff1673ffffffffffffffffffffffffffffffffffffffff16815260200180602001828103825283818151815260200191508051906020019080838360005b8381101561068a57808201518184015260208101905061066f565b50505050905090810190601f1680156106b75780820380516001836020036101000a031916815260200191505b50935050505060405180910390f35b6106fa600480360381019080803573ffffffffffffffffffffffffffffffffffffffff1690602001909291905050506115ab565b005b34801561070857600080fd5b5061073d600480360381019080803573ffffffffffffffffffffffffffffffffffffffff1690602001909291905050506116ba565b6040518082815260200191505060405180910390f35b34801561075f57600080fd5b506107886004803603810190808035906020019092919080359060200190929190505050611703565b005b34801561079657600080fd5b5061079f6117b6565b6040518080602001828103825283818151815260200191508051906020019080838360005b838110156107df5780820151818401526020810190506107c4565b50505050905090810190601f16801561080c5780820380516001836020036101000a031916815260200191505b509250505060405180910390f35b34801561082657600080fd5b5061082f611858565b6040518080602001828103825283818151815260200191508051906020019080838360005b8381101561086f578082015181840152602081019050610854565b50505050905090810190601f16801561089c5780820380516001836020036101000a031916815260200191505b509250505060405180910390f35b3480156108b657600080fd5b5061093b600480360381019080803573ffffffffffffffffffffffffffffffffffffffff16906020019092919080359060200190929190803590602001908201803590602001908080601f01602080910402602001604051908101604052809392919081815260200183838082843782019150505050505091929192905050506118f6565b005b34801561094957600080fd5b50610988600480360381019080803573ffffffffffffffffffffffffffffffffffffffff16906020019092919080359060200190929190505050611ae6565b604051808215151515815260200191505060405180910390f35b3480156109ae57600080fd5b50610a09600480360381019080803590602001908201803590602001908080601f0160208091040260200160405190810160405280939291908181526020018383808284378201915050505050509192919290505050611c6f565b005b348015610a1757600080fd5b50610a9c600480360381019080803573ffffffffffffffffffffffffffffffffffffffff16906020019092919080359060200190929190803590602001908201803590602001908080601f0160208091040260200160405190810160405280939291908181526020018383808284378201915050505050509192919290505050611ce5565b604051808215151515815260200191505060405180910390f35b348015610ac257600080fd5b50610aeb6004803603810190808035906020019092919080359060200190929190505050611f34565b005b348015610af957600080fd5b50610b4e600480360381019080803573ffffffffffffffffffffffffffffffffffffffff169060200190929190803573ffffffffffffffffffffffffffffffffffffffff169060200190929190505050611fe7565b6040518082815260200191505060405180910390f35b348015610b7057600080fd5b50610ba76004803603810190808035906020019092919080359060200190820180359060200191909192939192939050505061206e565b6040518082815260200191505060405180910390f35b348015610bc957600080fd5b50610c12600480360381019080803573ffffffffffffffffffffffffffffffffffffffff169060200190929190803590602001909291908035906020019092919050505061212d565b005b3373ffffffffffffffffffffffffffffffffffffffff16600960009054906101000a900473ffffffffffffffffffffffffffffffffffffffff1673ffffffffffffffffffffffffffffffffffffffff16141515610c7057600080fd5b8060079080519060200190610c8692919061225e565b5050565b60018054600181600116156101000203166002900480601f016020809104026020016040519081016040528092919081815260200182805460018160011615610100020316600290048015610d205780601f10610cf557610100808354040283529160200191610d20565b820191906000526020600020905b815481529060010190602001808311610d0357829003601f168201915b505050505081565b600081600560003373ffffffffffffffffffffffffffffffffffffffff1673ffffffffffffffffffffffffffffffffffffffff16815260200190815260200160002060008573ffffffffffffffffffffffffffffffffffffffff1673ffffffffffffffffffffffffffffffffffffffff168152602001908152602001600020819055508273ffffffffffffffffffffffffffffffffffffffff163373ffffffffffffffffffffffffffffffffffffffff167f8c5be1e5ebec7d5bd14f71427d1e84f3dd0314c0f7b2291e5b200ac8c7c3b925846040518082815260200191505060405180910390a36001905092915050565b606060068054600181600116156101000203166002900480601f016020809104026020016040519081016040528092919081815260200182805460018160011615610100020316600290048015610eb25780601f10610e8757610100808354040283529160200191610eb2565b820191906000526020600020905b815481529060010190602001808311610e9557829003601f168201915b5050505050905090565b6000600460008073ffffffffffffffffffffffffffffffffffffffff1673ffffffffffffffffffffffffffffffffffffffff1681526020019081526020016000205460035403905090565b6000610f52600460008673ffffffffffffffffffffffffffffffffffffffff1673ffffffffffffffffffffffffffffffffffffffff1681526020019081526020016000205483612226565b600460008673ffffffffffffffffffffffffffffffffffffffff1673ffffffffffffffffffffffffffffffffffffffff1681526020019081526020016000208190555061101b600560008673ffffffffffffffffffffffffffffffffffffffff1673ffffffffffffffffffffffffffffffffffffffff16815260200190815260200160002060003373ffffffffffffffffffffffffffffffffffffffff1673ffffffffffffffffffffffffffffffffffffffff1681526020019081526020016000205483612226565b600560008673ffffffffffffffffffffffffffffffffffffffff1673ffffffffffffffffffffffffffffffffffffffff16815260200190815260200160002060003373ffffffffffffffffffffffffffffffffffffffff1673ffffffffffffffffffffffffffffffffffffffff168152602001908152602001600020819055506110e4600460008573ffffffffffffffffffffffffffffffffffffffff1673ffffffffffffffffffffffffffffffffffffffff1681526020019081526020016000205483612242565b600460008573ffffffffffffffffffffffffffffffffffffffff1673ffffffffffffffffffffffffffffffffffffffff168152602001908152602001600020819055508273ffffffffffffffffffffffffffffffffffffffff168473ffffffffffffffffffffffffffffffffffffffff167fddf252ad1be2c89b69c2b068fc378daa952ba7f163c4a11628f55a4df523b3ef846040518082815260200191505060405180910390a3600190509392505050565b3373ffffffffffffffffffffffffffffffffffffffff16600960009054906101000a900473ffffffffffffffffffffffffffffffffffffffff1673ffffffffffffffffffffffffffffffffffffffff161415156111f357600080fd5b80600880805480919060010161120991906122de565b81548110151561121557fe5b90600052602060002090600202016000019080519060200190611239929190612310565b507f7694d63d2563aeac8aad2b0a111ef1ba09b12b9748ef4ae1010584d554b87fea600160088054905003600033604051808481526020018381526020018273ffffffffffffffffffffffffffffffffffffffff1673ffffffffffffffffffffffffffffffffffffffff168152602001935050505060405180910390a150565b600260009054906101000a900460ff1681565b60035481565b606060006008838154811015156112e557fe5b90600052602060002090600202019050806000018054600181600116156101000203166002900480601f01602080910402602001604051908101604052809291908181526020018280546001816001161561010002031660029004801561138d5780601f106113625761010080835404028352916020019161138d565b820191906000526020600020905b81548152906001019060200180831161137057829003601f168201915b5050505050915050919050565b6000600880549050905090565b3373ffffffffffffffffffffffffffffffffffffffff16600960009054906101000a900473ffffffffffffffffffffffffffffffffffffffff1673ffffffffffffffffffffffffffffffffffffffff1614151561140357600080fd5b8273ffffffffffffffffffffffffffffffffffffffff1663d6b9eb4f83836040518363ffffffff167c01000000000000000000000000000000000000000000000000000000000281526004018083815260200182815260200192505050600060405180830381600087803b15801561147a57600080fd5b505af115801561148e573d6000803e3d6000fd5b50505050505050565b6000606060006008858154811015156114ac57fe5b9060005260206000209060020201600101848154811015156114ca57fe5b906000526020600020906005020190508060000160009054906101000a900473ffffffffffffffffffffffffffffffffffffffff1681600401808054600181600116156101000203166002900480601f0160208091040260200160405190810160405280929190818152602001828054600181600116156101000203166002900480156115985780601f1061156d57610100808354040283529160200191611598565b820191906000526020600020905b81548152906001019060200180831161157b57829003601f168201915b5050505050905092509250509250929050565b60006103e890506115fb600460008473ffffffffffffffffffffffffffffffffffffffff1673ffffffffffffffffffffffffffffffffffffffff1681526020019081526020016000205482612242565b600460008473ffffffffffffffffffffffffffffffffffffffff1673ffffffffffffffffffffffffffffffffffffffff1681526020019081526020016000208190555061164a60035482612242565b6003819055508173ffffffffffffffffffffffffffffffffffffffff16600073ffffffffffffffffffffffffffffffffffffffff167fddf252ad1be2c89b69c2b068fc378daa952ba7f163c4a11628f55a4df523b3ef836040518082815260200191505060405180910390a35050565b6000600460008373ffffffffffffffffffffffffffffffffffffffff1673ffffffffffffffffffffffffffffffffffffffff168152602001908152602001600020549050919050565b600060088381548110151561171457fe5b90600052602060002090600202016001018281548110151561173257fe5b906000526020600020906005020190508060000160009054906101000a900473ffffffffffffffffffffffffffffffffffffffff1673ffffffffffffffffffffffffffffffffffffffff163373ffffffffffffffffffffffffffffffffffffffff1614151561179d57fe5b8060010160008154809291906001019190505550505050565b606060078054600181600116156101000203166002900480601f01602080910402602001604051908101604052809291908181526020018280546001816001161561010002031660029004801561184e5780601f106118235761010080835404028352916020019161184e565b820191906000526020600020905b81548152906001019060200180831161183157829003601f168201915b5050505050905090565b60008054600181600116156101000203166002900480601f0160208091040260200160405190810160405280929190818152602001828054600181600116156101000203166002900480156118ee5780601f106118c3576101008083540402835291602001916118ee565b820191906000526020600020905b8154815290600101906020018083116118d157829003601f168201915b505050505081565b60003373ffffffffffffffffffffffffffffffffffffffff16600960009054906101000a900473ffffffffffffffffffffffffffffffffffffffff1673ffffffffffffffffffffffffffffffffffffffff1614151561195457600080fd5b8373ffffffffffffffffffffffffffffffffffffffff1663e139f3f684846040518363ffffffff167c01000000000000000000000000000000000000000000000000000000000281526004018083815260200180602001828103825283818151815260200191508051906020019080838360005b838110156119e35780820151818401526020810190506119c8565b50505050905090810190601f168015611a105780820380516001836020036101000a031916815260200191505b509350505050602060405180830381600087803b158015611a3057600080fd5b505af1158015611a44573d6000803e3d6000fd5b505050506040513d6020811015611a5a57600080fd5b810190808051906020019092919050505090507f7694d63d2563aeac8aad2b0a111ef1ba09b12b9748ef4ae1010584d554b87fea838233604051808481526020018381526020018273ffffffffffffffffffffffffffffffffffffffff1673ffffffffffffffffffffffffffffffffffffffff168152602001935050505060405180910390a150505050565b6000611b31600460003373ffffffffffffffffffffffffffffffffffffffff1673ffffffffffffffffffffffffffffffffffffffff1681526020019081526020016000205483612226565b600460003373ffffffffffffffffffffffffffffffffffffffff1673ffffffffffffffffffffffffffffffffffffffff16815260200190815260200160002081905550611bbd600460008573ffffffffffffffffffffffffffffffffffffffff1673ffffffffffffffffffffffffffffffffffffffff1681526020019081526020016000205483612242565b600460008573ffffffffffffffffffffffffffffffffffffffff1673ffffffffffffffffffffffffffffffffffffffff168152602001908152602001600020819055508273ffffffffffffffffffffffffffffffffffffffff163373ffffffffffffffffffffffffffffffffffffffff167fddf252ad1be2c89b69c2b068fc378daa952ba7f163c4a11628f55a4df523b3ef846040518082815260200191505060405180910390a36001905092915050565b3373ffffffffffffffffffffffffffffffffffffffff16600960009054906101000a900473ffffffffffffffffffffffffffffffffffffffff1673ffffffffffffffffffffffffffffffffffffffff16141515611ccb57600080fd5b8060069080519060200190611ce1929190612310565b5050565b600082600560003373ffffffffffffffffffffffffffffffffffffffff1673ffffffffffffffffffffffffffffffffffffffff16815260200190815260200160002060008673ffffffffffffffffffffffffffffffffffffffff1673ffffffffffffffffffffffffffffffffffffffff168152602001908152602001600020819055508373ffffffffffffffffffffffffffffffffffffffff163373ffffffffffffffffffffffffffffffffffffffff167f8c5be1e5ebec7d5bd14f71427d1e84f3dd0314c0f7b2291e5b200ac8c7c3b925856040518082815260200191505060405180910390a38373ffffffffffffffffffffffffffffffffffffffff16638f4ffcb1338530866040518563ffffffff167c0100000000000000000000000000000000000000000000000000000000028152600401808573ffffffffffffffffffffffffffffffffffffffff1673ffffffffffffffffffffffffffffffffffffffff1681526020018481526020018373ffffffffffffffffffffffffffffffffffffffff1673ffffffffffffffffffffffffffffffffffffffff16815260200180602001828103825283818151815260200191508051906020019080838360005b83811015611ec2578082015181840152602081019050611ea7565b50505050905090810190601f168015611eef5780820380516001836020036101000a031916815260200191505b5095505050505050600060405180830381600087803b158015611f1157600080fd5b505af1158015611f25573d6000803e3d6000fd5b50505050600190509392505050565b6000600883815481101515611f4557fe5b906000526020600020906002020160010182815481101515611f6357fe5b906000526020600020906005020190508060000160009054906101000a900473ffffffffffffffffffffffffffffffffffffffff1673ffffffffffffffffffffffffffffffffffffffff163373ffffffffffffffffffffffffffffffffffffffff16141515611fce57fe5b8060020160008154809291906001019190505550505050565b6000600560008473ffffffffffffffffffffffffffffffffffffffff1673ffffffffffffffffffffffffffffffffffffffff16815260200190815260200160002060008373ffffffffffffffffffffffffffffffffffffffff1673ffffffffffffffffffffffffffffffffffffffff16815260200190815260200160002054905092915050565b60008060008060088781548110151561208357fe5b906000526020600020906002020192508260010180548091906001016120a99190612390565b915082600101828154811015156120bc57fe5b90600052602060002090600502019050338160000160006101000a81548173ffffffffffffffffffffffffffffffffffffffff021916908373ffffffffffffffffffffffffffffffffffffffff16021790555085858260040191906121229291906123c2565b505050509392505050565b3373ffffffffffffffffffffffffffffffffffffffff16600960009054906101000a900473ffffffffffffffffffffffffffffffffffffffff1673ffffffffffffffffffffffffffffffffffffffff1614151561218957600080fd5b8273ffffffffffffffffffffffffffffffffffffffff166374c6372583836040518363ffffffff167c01000000000000000000000000000000000000000000000000000000000281526004018083815260200182815260200192505050600060405180830381600087803b15801561220057600080fd5b505af1158015612214573d6000803e3d6000fd5b50505050612221836115ab565b505050565b600082821115151561223757600080fd5b818303905092915050565b6000818301905082811015151561225857600080fd5b92915050565b828054600181600116156101000203166002900490600052602060002090601f016020900481019282601f1061229f57805160ff19168380011785556122cd565b828001600101855582156122cd579182015b828111156122cc5782518255916020019190600101906122b1565b5b5090506122da9190612442565b5090565b81548183558181111561230b5760020281600202836000526020600020918201910161230a9190612467565b5b505050565b828054600181600116156101000203166002900490600052602060002090601f016020900481019282601f1061235157805160ff191683800117855561237f565b8280016001018555821561237f579182015b8281111561237e578251825591602001919060010190612363565b5b50905061238c9190612442565b5090565b8154818355818111156123bd576005028160050283600052602060002091820191016123bc91906124a6565b5b505050565b828054600181600116156101000203166002900490600052602060002090601f016020900481019282601f1061240357803560ff1916838001178555612431565b82800160010185558215612431579182015b82811115612430578235825591602001919060010190612415565b5b50905061243e9190612442565b5090565b61246491905b80821115612460576000816000905550600101612448565b5090565b90565b6124a391905b8082111561249f57600080820160006124869190612514565b600182016000612496919061255c565b5060020161246d565b5090565b90565b61251191905b8082111561250d57600080820160006101000a81549073ffffffffffffffffffffffffffffffffffffffff02191690556001820160009055600282016000905560038201600090556004820160006125049190612514565b506005016124ac565b5090565b90565b50805460018160011615610100020316600290046000825580601f1061253a5750612559565b601f0160209004906000526020600020908101906125589190612442565b5b50565b508054600082556005029060005260206000209081019061257d91906124a6565b505600a165627a7a72305820e03039bd8555a5fac629cf5bf9e8904aaaf146265df36f34ad148305870b81d70029",
  "source": "pragma solidity ^0.4.14;\n\ncontract SafeMath {\n    function safeAdd(uint a, uint b) internal pure returns (uint c) {\n        c = a + b;\n        require(c >= a);\n    }\n    function safeSub(uint a, uint b) internal pure returns (uint c) {\n        require(b <= a);\n        c = a - b;\n    }\n    function safeMul(uint a, uint b) internal pure returns (uint c) {\n        c = a * b;\n        require(a == 0 || c / a == b);\n    }\n    function safeDiv(uint a, uint b) internal pure returns (uint c) {\n        require(b > 0);\n        c = a / b;\n    }\n}\n\ncontract ERC20Interface {\n    function totalSupply() public constant returns (uint);\n    function balanceOf(address tokenOwner) public constant returns (uint balance);\n    function allowance(address tokenOwner, address spender) public constant returns (uint remaining);\n    function transfer(address to, uint tokens) public returns (bool success);\n    function approve(address spender, uint tokens) public returns (bool success);\n    function transferFrom(address from, address to, uint tokens) public returns (bool success);\n\n    event Transfer(address indexed from, address indexed to, uint tokens);\n    event Approval(address indexed tokenOwner, address indexed spender, uint tokens);\n}\n\ncontract ApproveAndCallFallBack {\n    function receiveApproval(address from, uint256 tokens, address token, bytes data) public;\n}\n\ncontract additToken is ERC20Interface, SafeMath {\n    string public symbol;\n    string public  name;\n    uint8 public decimals;\n    uint public _totalSupply;\n    \n    mapping(address => uint) balances;\n    mapping(address => mapping(address => uint)) allowed;\n\n    constructor () public {\n        symbol = \"ADT\";\n        name = \"Addit Token\";\n        decimals = 18;\n    }\n\n    function totalSupply() public constant returns (uint) {\n        return _totalSupply  - balances[address(0)];\n    }\n\n    function balanceOf(address tokenOwner) public constant returns (uint balance) {\n        return balances[tokenOwner];\n    }\n\n    function transfer(address to, uint tokens) public returns (bool success) {\n        balances[msg.sender] = safeSub(balances[msg.sender], tokens);\n        balances[to] = safeAdd(balances[to], tokens);\n        emit Transfer(msg.sender, to, tokens);\n        return true;\n    }\n\n    function approve(address spender, uint tokens) public returns (bool success) {\n        allowed[msg.sender][spender] = tokens;\n        emit Approval(msg.sender, spender, tokens);\n        return true;\n    }\n\n    function transferFrom(address from, address to, uint tokens) public returns (bool success) {\n        balances[from] = safeSub(balances[from], tokens);\n        allowed[from][msg.sender] = safeSub(allowed[from][msg.sender], tokens);\n        balances[to] = safeAdd(balances[to], tokens);\n        emit Transfer(from, to, tokens);\n        return true;\n    }\n\n    function allowance(address tokenOwner, address spender) public constant returns (uint remaining) {\n        return allowed[tokenOwner][spender];\n    }\n\n    function approveAndCall(address spender, uint tokens, bytes data) public returns (bool success) {\n        allowed[msg.sender][spender] = tokens;\n        emit Approval(msg.sender, spender, tokens);\n        ApproveAndCallFallBack(spender).receiveApproval(msg.sender, tokens, this, data);\n        return true;\n    }\n\n    function reward(address account) public payable {\n        uint tokens;\n \n        tokens = 1 * 1000;\n        balances[account] = safeAdd(balances[account], tokens);\n        _totalSupply = safeAdd(_totalSupply, tokens);\n        emit Transfer(address(0), account, tokens);\n    }\n}\n\ncontract Addit is additToken {\n\n    struct Comment {\n        address owner;\n        uint    upvote;\n        uint    downvote;\n        uint    create_at;\n        string  content;\n    }\n\n    struct Post {\n        string url;\n        Comment[] comments;\n    }\n\n    string name;\n    bytes picture;\n    Post[] posts;\n    address owner;\n\n    event NewPostAdded(uint postidx, uint commentidx, address owner);\n\n    modifier isOwner() {\n        require(owner == msg.sender);\n        _;\n    }\n\n    constructor () public {\n        owner = msg.sender; \n    }\n\n    function setName(string _name) public isOwner {\n        name = _name;\n    }\n\n    function getName() public constant returns (string) {\n        return name;\n    }\n\n    function setPicture(bytes _picture) public isOwner {\n        picture = _picture;\n    }\n\n    function getPicture() public constant returns (bytes) {\n        return picture;\n    }\n\n    function pushPost(string _url) public isOwner {\n        posts[posts.length++].url = _url;\n        \n        emit NewPostAdded(posts.length - 1, 0, msg.sender);\n    }\n\n    function getPosts() public  constant returns (uint) {\n        return posts.length;\n    }\n\n    function getPost(uint id) public constant returns (string) {\n        Post storage post = posts[id];\n\n        return (post.url);\n    }\n\n    function _pushComment(uint id, string content) external returns (uint) {\n        Post storage post = posts[id];\n        uint commentidx = post.comments.length++;\n        Comment storage comment = post.comments[commentidx];\n\n        comment.owner = msg.sender;\n        comment.content = content;\n    }\n\n\n    function getComment(uint postId, uint commentId) public constant returns (address, string) {\n        Comment storage comment = posts[postId].comments[commentId];\n\n        return (comment.owner, comment.content);\n    }\n\n    function pushComment(address user, uint postId, string content) public isOwner {\n        uint commentidx = Addit(user)._pushComment(postId, content);\n        \n        emit NewPostAdded(postId, commentidx, msg.sender);\n    }\n    \n    function _upVoting(uint postId, uint commentId) external {\n        Comment storage comment = posts[postId].comments[commentId];\n\n        assert(msg.sender == comment.owner);\n        comment.upvote++;\n    }\n    \n    function upVote(address user, uint postId, uint commentId) public isOwner {\n        Addit(user)._upVoting(postId, commentId);\n        reward(user);\n    }\n\n   function _downVoting(uint postId, uint commentId) external {\n        Comment storage comment = posts[postId].comments[commentId];\n\n        assert(msg.sender == comment.owner);\n        comment.downvote++;\n    }\n    \n    function downVote(address user, uint postId, uint commentId) public isOwner {\n        Addit(user)._downVoting(postId, commentId);\n    }\n}\n\n\n",
  "sourcePath": "/Users/violetstair/workspace/klaytn/additapp-contract/contracts/Addit.sol",
  "compiler": {
    "name": "solc",
    "version": "0.4.24+commit.e67f0147.Emscripten.clang"
  },
  "schemaVersion": "2.0.1",
  "updatedAt": "2018-10-27T17:17:22.051Z"
}